{
  "_format": "hh-sol-artifact-1",
  "contractName": "DataTraceability",
  "sourceName": "contracts/DataTraceability.sol",
  "abi": [
    {
      "inputs": [],
      "stateMutability": "nonpayable",
      "type": "constructor"
    },
    {
      "anonymous": false,
      "inputs": [
        {
          "indexed": true,
          "internalType": "address",
          "name": "previousOwner",
          "type": "address"
        },
        {
          "indexed": true,
          "internalType": "address",
          "name": "newOwner",
          "type": "address"
        }
      ],
      "name": "OwnershipTransferred",
      "type": "event"
    },
    {
      "anonymous": false,
      "inputs": [
        {
          "indexed": true,
          "internalType": "uint256",
          "name": "recordId",
          "type": "uint256"
        },
        {
          "indexed": false,
          "internalType": "string",
          "name": "dataHash",
          "type": "string"
        },
        {
          "indexed": false,
          "internalType": "string",
          "name": "dataType",
          "type": "string"
        },
        {
          "indexed": true,
          "internalType": "address",
          "name": "creator",
          "type": "address"
        },
        {
          "indexed": false,
          "internalType": "uint256",
          "name": "timestamp",
          "type": "uint256"
        }
      ],
      "name": "RecordCreated",
      "type": "event"
    },
    {
      "anonymous": false,
      "inputs": [
        {
          "indexed": true,
          "internalType": "uint256",
          "name": "recordId",
          "type": "uint256"
        },
        {
          "indexed": true,
          "internalType": "address",
          "name": "verifier",
          "type": "address"
        },
        {
          "indexed": false,
          "internalType": "uint256",
          "name": "timestamp",
          "type": "uint256"
        }
      ],
      "name": "RecordVerified",
      "type": "event"
    },
    {
      "anonymous": false,
      "inputs": [
        {
          "indexed": true,
          "internalType": "uint256",
          "name": "recordId",
          "type": "uint256"
        },
        {
          "indexed": false,
          "internalType": "string",
          "name": "action",
          "type": "string"
        },
        {
          "indexed": true,
          "internalType": "address",
          "name": "actor",
          "type": "address"
        },
        {
          "indexed": false,
          "internalType": "uint256",
          "name": "timestamp",
          "type": "uint256"
        }
      ],
      "name": "TraceStepAdded",
      "type": "event"
    },
    {
      "inputs": [
        {
          "internalType": "uint256",
          "name": "_recordId",
          "type": "uint256"
        },
        {
          "internalType": "string",
          "name": "_action",
          "type": "string"
        },
        {
          "internalType": "string",
          "name": "_details",
          "type": "string"
        }
      ],
      "name": "addTraceStep",
      "outputs": [],
      "stateMutability": "nonpayable",
      "type": "function"
    },
    {
      "inputs": [
        {
          "internalType": "string",
          "name": "_dataHash",
          "type": "string"
        },
        {
          "internalType": "string",
          "name": "_dataType",
          "type": "string"
        },
        {
          "internalType": "string",
          "name": "_description",
          "type": "string"
        },
        {
          "internalType": "string",
          "name": "_metadata",
          "type": "string"
        }
      ],
      "name": "createRecord",
      "outputs": [
        {
          "internalType": "uint256",
          "name": "",
          "type": "uint256"
        }
      ],
      "stateMutability": "nonpayable",
      "type": "function"
    },
    {
      "inputs": [],
      "name": "getContractInfo",
      "outputs": [
        {
          "internalType": "address",
          "name": "contractOwner",
          "type": "address"
        },
        {
          "internalType": "uint256",
          "name": "totalRecords",
          "type": "uint256"
        },
        {
          "internalType": "uint256",
          "name": "blockNumber",
          "type": "uint256"
        },
        {
          "internalType": "uint256",
          "name": "blockTimestamp",
          "type": "uint256"
        }
      ],
      "stateMutability": "view",
      "type": "function"
    },
    {
      "inputs": [
        {
          "internalType": "uint256",
          "name": "_recordId",
          "type": "uint256"
        }
      ],
      "name": "getRecord",
      "outputs": [
        {
          "internalType": "uint256",
          "name": "id",
          "type": "uint256"
        },
        {
          "internalType": "string",
          "name": "dataHash",
          "type": "string"
        },
        {
          "internalType": "string",
          "name": "dataType",
          "type": "string"
        },
        {
          "internalType": "string",
          "name": "description",
          "type": "string"
        },
        {
          "internalType": "address",
          "name": "creator",
          "type": "address"
        },
        {
          "internalType": "uint256",
          "name": "timestamp",
          "type": "uint256"
        },
        {
          "internalType": "string",
          "name": "metadata",
          "type": "string"
        },
        {
          "internalType": "bool",
          "name": "verified",
          "type": "bool"
        },
        {
          "internalType": "address",
          "name": "verifiedBy",
          "type": "address"
        },
        {
          "internalType": "uint256",
          "name": "verifiedAt",
          "type": "uint256"
        }
      ],
      "stateMutability": "view",
      "type": "function"
    },
    {
      "inputs": [
        {
          "internalType": "uint256",
          "name": "_recordId",
          "type": "uint256"
        }
      ],
      "name": "getTraceHistory",
      "outputs": [
        {
          "components": [
            {
              "internalType": "uint256",
              "name": "recordId",
              "type": "uint256"
            },
            {
              "internalType": "string",
              "name": "action",
              "type": "string"
            },
            {
              "internalType": "address",
              "name": "actor",
              "type": "address"
            },
            {
              "internalType": "uint256",
              "name": "timestamp",
              "type": "uint256"
            },
            {
              "internalType": "string",
              "name": "details",
              "type": "string"
            }
          ],
          "internalType": "struct DataTraceability.TraceStep[]",
          "name": "",
          "type": "tuple[]"
        }
      ],
      "stateMutability": "view",
      "type": "function"
    },
    {
      "inputs": [
        {
          "internalType": "uint256",
          "name": "_recordId",
          "type": "uint256"
        }
      ],
      "name": "getTraceStepCount",
      "outputs": [
        {
          "internalType": "uint256",
          "name": "",
          "type": "uint256"
        }
      ],
      "stateMutability": "view",
      "type": "function"
    },
    {
      "inputs": [
        {
          "internalType": "address",
          "name": "_user",
          "type": "address"
        }
      ],
      "name": "getUserRecords",
      "outputs": [
        {
          "internalType": "uint256[]",
          "name": "",
          "type": "uint256[]"
        }
      ],
      "stateMutability": "view",
      "type": "function"
    },
    {
      "inputs": [],
      "name": "owner",
      "outputs": [
        {
          "internalType": "address",
          "name": "",
          "type": "address"
        }
      ],
      "stateMutability": "view",
      "type": "function"
    },
    {
      "inputs": [],
      "name": "recordCount",
      "outputs": [
        {
          "internalType": "uint256",
          "name": "",
          "type": "uint256"
        }
      ],
      "stateMutability": "view",
      "type": "function"
    },
    {
      "inputs": [
        {
          "internalType": "uint256",
          "name": "",
          "type": "uint256"
        }
      ],
      "name": "records",
      "outputs": [
        {
          "internalType": "uint256",
          "name": "id",
          "type": "uint256"
        },
        {
          "internalType": "string",
          "name": "dataHash",
          "type": "string"
        },
        {
          "internalType": "string",
          "name": "dataType",
          "type": "string"
        },
        {
          "internalType": "string",
          "name": "description",
          "type": "string"
        },
        {
          "internalType": "address",
          "name": "creator",
          "type": "address"
        },
        {
          "internalType": "uint256",
          "name": "timestamp",
          "type": "uint256"
        },
        {
          "internalType": "string",
          "name": "metadata",
          "type": "string"
        },
        {
          "internalType": "bool",
          "name": "verified",
          "type": "bool"
        },
        {
          "internalType": "address",
          "name": "verifiedBy",
          "type": "address"
        },
        {
          "internalType": "uint256",
          "name": "verifiedAt",
          "type": "uint256"
        }
      ],
      "stateMutability": "view",
      "type": "function"
    },
    {
      "inputs": [
        {
          "internalType": "uint256",
          "name": "",
          "type": "uint256"
        },
        {
          "internalType": "uint256",
          "name": "",
          "type": "uint256"
        }
      ],
      "name": "traceHistory",
      "outputs": [
        {
          "internalType": "uint256",
          "name": "recordId",
          "type": "uint256"
        },
        {
          "internalType": "string",
          "name": "action",
          "type": "string"
        },
        {
          "internalType": "address",
          "name": "actor",
          "type": "address"
        },
        {
          "internalType": "uint256",
          "name": "timestamp",
          "type": "uint256"
        },
        {
          "internalType": "string",
          "name": "details",
          "type": "string"
        }
      ],
      "stateMutability": "view",
      "type": "function"
    },
    {
      "inputs": [
        {
          "internalType": "address",
          "name": "newOwner",
          "type": "address"
        }
      ],
      "name": "transferOwnership",
      "outputs": [],
      "stateMutability": "nonpayable",
      "type": "function"
    },
    {
      "inputs": [
        {
          "internalType": "bytes32",
          "name": "",
          "type": "bytes32"
        }
      ],
      "name": "usedHashes",
      "outputs": [
        {
          "internalType": "bool",
          "name": "",
          "type": "bool"
        }
      ],
      "stateMutability": "view",
      "type": "function"
    },
    {
      "inputs": [
        {
          "internalType": "address",
          "name": "",
          "type": "address"
        },
        {
          "internalType": "uint256",
          "name": "",
          "type": "uint256"
        }
      ],
      "name": "userRecords",
      "outputs": [
        {
          "internalType": "uint256",
          "name": "",
          "type": "uint256"
        }
      ],
      "stateMutability": "view",
      "type": "function"
    },
    {
      "inputs": [
        {
          "internalType": "uint256",
          "name": "_recordId",
          "type": "uint256"
        }
      ],
      "name": "verifyRecord",
      "outputs": [],
      "stateMutability": "nonpayable",
      "type": "function"
    }
  ],
  "bytecode": "0x608060405234801561001057600080fd5b50600580546001600160a01b031916331790556000600455611b80806100376000396000f3fe608060405234801561001057600080fd5b50600436106100f55760003560e01c80637cc1f86711610097578063aef18bf711610066578063aef18bf714610252578063b797dcb514610285578063e85d28b914610298578063f2fde38b146102ab57600080fd5b80637cc1f867146101d95780638d6ed5da1461020b5780638da5cb5b1461021e578063900407bc1461024957600080fd5b806334461067116100d357806334461067146101705780633af4d9501461018357806349263a371461019857806351096b02146101b957600080fd5b806303e9e609146100fa5780631406cc5b1461012c578063166465221461014c575b600080fd5b61010d610108366004611499565b6102be565b6040516101239a99989796959493929190611502565b60405180910390f35b61013f61013a366004611499565b610647565b6040516101239190611594565b61015f61015a366004611644565b61082f565b604051610123959493929190611666565b61010d61017e366004611499565b6109a0565b610196610191366004611499565b610c29565b005b6101ab6101a6366004611499565b610dbb565b604051908152602001610123565b6101cc6101c73660046116cf565b610e00565b60405161012391906116f1565b600554600454604080516001600160a01b03909316835260208301919091524390820152426060820152608001610123565b6101966102193660046117d8565b610e6c565b600554610231906001600160a01b031681565b6040516001600160a01b039091168152602001610123565b6101ab60045481565b610275610260366004611499565b60036020526000908152604090205460ff1681565b6040519015158152602001610123565b6101ab610293366004611845565b610f22565b6101ab6102a63660046118f2565b611279565b6101966102b93660046116cf565b6112aa565b60006060806060600080606060008060008a6000811180156102e257506004548111155b6103075760405162461bcd60e51b81526004016102fe9061191c565b60405180910390fd5b60008060008e815260200190815260200160002060405180610140016040529081600082015481526020016001820180546103419061194b565b80601f016020809104026020016040519081016040528092919081815260200182805461036d9061194b565b80156103ba5780601f1061038f576101008083540402835291602001916103ba565b820191906000526020600020905b81548152906001019060200180831161039d57829003601f168201915b505050505081526020016002820180546103d39061194b565b80601f01602080910402602001604051908101604052809291908181526020018280546103ff9061194b565b801561044c5780601f106104215761010080835404028352916020019161044c565b820191906000526020600020905b81548152906001019060200180831161042f57829003601f168201915b505050505081526020016003820180546104659061194b565b80601f01602080910402602001604051908101604052809291908181526020018280546104919061194b565b80156104de5780601f106104b3576101008083540402835291602001916104de565b820191906000526020600020905b8154815290600101906020018083116104c157829003601f168201915b505050918352505060048201546001600160a01b03166020820152600582015460408201526006820180546060909201916105189061194b565b80601f01602080910402602001604051908101604052809291908181526020018280546105449061194b565b80156105915780601f1061056657610100808354040283529160200191610591565b820191906000526020600020905b81548152906001019060200180831161057457829003601f168201915b505050505081526020016007820160009054906101000a900460ff161515151581526020016007820160019054906101000a90046001600160a01b03166001600160a01b03166001600160a01b031681526020016008820154815250509050806000015181602001518260400151836060015184608001518560a001518660c001518760e001518861010001518961012001519b509b509b509b509b509b509b509b509b509b5050509193959799509193959799565b60608160008111801561065c57506004548111155b6106785760405162461bcd60e51b81526004016102fe9061191c565b600083815260016020908152604080832080548251818502810185019093528083529193909284015b8282101561082257838290600052602060002090600502016040518060a0016040529081600082015481526020016001820180546106de9061194b565b80601f016020809104026020016040519081016040528092919081815260200182805461070a9061194b565b80156107575780601f1061072c57610100808354040283529160200191610757565b820191906000526020600020905b81548152906001019060200180831161073a57829003601f168201915b505050918352505060028201546001600160a01b03166020820152600382015460408201526004820180546060909201916107919061194b565b80601f01602080910402602001604051908101604052809291908181526020018280546107bd9061194b565b801561080a5780601f106107df5761010080835404028352916020019161080a565b820191906000526020600020905b8154815290600101906020018083116107ed57829003601f168201915b505050505081525050815260200190600101906106a1565b5050505091505b50919050565b6001602052816000526040600020818154811061084b57600080fd5b9060005260206000209060050201600091509150508060000154908060010180546108759061194b565b80601f01602080910402602001604051908101604052809291908181526020018280546108a19061194b565b80156108ee5780601f106108c3576101008083540402835291602001916108ee565b820191906000526020600020905b8154815290600101906020018083116108d157829003601f168201915b505050506002830154600384015460048501805494956001600160a01b03909316949193509061091d9061194b565b80601f01602080910402602001604051908101604052809291908181526020018280546109499061194b565b80156109965780601f1061096b57610100808354040283529160200191610996565b820191906000526020600020905b81548152906001019060200180831161097957829003601f168201915b5050505050905085565b600060208190529081526040902080546001820180549192916109c29061194b565b80601f01602080910402602001604051908101604052809291908181526020018280546109ee9061194b565b8015610a3b5780601f10610a1057610100808354040283529160200191610a3b565b820191906000526020600020905b815481529060010190602001808311610a1e57829003601f168201915b505050505090806002018054610a509061194b565b80601f0160208091040260200160405190810160405280929190818152602001828054610a7c9061194b565b8015610ac95780601f10610a9e57610100808354040283529160200191610ac9565b820191906000526020600020905b815481529060010190602001808311610aac57829003601f168201915b505050505090806003018054610ade9061194b565b80601f0160208091040260200160405190810160405280929190818152602001828054610b0a9061194b565b8015610b575780601f10610b2c57610100808354040283529160200191610b57565b820191906000526020600020905b815481529060010190602001808311610b3a57829003601f168201915b505050506004830154600584015460068501805494956001600160a01b039093169491935090610b869061194b565b80601f0160208091040260200160405190810160405280929190818152602001828054610bb29061194b565b8015610bff5780601f10610bd457610100808354040283529160200191610bff565b820191906000526020600020905b815481529060010190602001808311610be257829003601f168201915b505050506007830154600890930154919260ff8116926101009091046001600160a01b031691508a565b6005546001600160a01b03163314610c7e5760405162461bcd60e51b81526020600482015260186024820152774f6e6c79206f776e65722063616e2063616c6c207468697360401b60448201526064016102fe565b80600081118015610c9157506004548111155b610cad5760405162461bcd60e51b81526004016102fe9061191c565b60008281526020819052604090206007015460ff1615610d0f5760405162461bcd60e51b815260206004820152601760248201527f5265636f726420616c726561647920766572696669656400000000000000000060448201526064016102fe565b6000828152602081815260409182902060078101805433610100026001600160a81b03199091161760011790554260089182015582518084018452908152671d995c9a599a595960c21b818301528251606081019093526021808452610d80938693909190611b2a908301396113a7565b604051428152339083907f2711a1edb3e0bb8b7cecede8778c7faf898d7781ba287830a520008f3c9949a19060200160405180910390a35050565b600081600081118015610dd057506004548111155b610dec5760405162461bcd60e51b81526004016102fe9061191c565b505060009081526001602052604090205490565b6001600160a01b038116600090815260026020908152604091829020805483518184028101840190945280845260609392830182828015610e6057602002820191906000526020600020905b815481526020019060010190808311610e4c575b50505050509050919050565b82600081118015610e7f57506004548111155b610e9b5760405162461bcd60e51b81526004016102fe9061191c565b60008481526020819052604090206004015484906001600160a01b03163314610f105760405162461bcd60e51b815260206004820152602160248201527f4f6e6c79207265636f72642063726561746f722063616e2063616c6c207468696044820152607360f81b60648201526084016102fe565b610f1b8585856113a7565b5050505050565b600080855111610f745760405162461bcd60e51b815260206004820152601960248201527f4461746120686173682063616e6e6f7420626520656d7074790000000000000060448201526064016102fe565b6000845111610fc55760405162461bcd60e51b815260206004820152601960248201527f4461746120747970652063616e6e6f7420626520656d7074790000000000000060448201526064016102fe565b600085604051602001610fd8919061197f565b60408051601f1981840301815291815281516020928301206000818152600390935291205490915060ff16156110505760405162461bcd60e51b815260206004820152601860248201527f44617461206861736820616c726561647920657869737473000000000000000060448201526064016102fe565b600480549060006110608361199b565b9091555050600454604080516101408101825282815260208082018a81528284018a9052606083018990523360808401524260a084015260c08301889052600060e08401819052610100840181905261012084018190528581529182905292902081518155915190919060018201906110d99082611a11565b50604082015160028201906110ee9082611a11565b50606082015160038201906111039082611a11565b5060808201516004820180546001600160a01b0319166001600160a01b0390921691909117905560a0820151600582015560c082015160068201906111489082611a11565b5060e082015160078083018054610100808701516001600160a01b031602610100600160a81b0319941515949094166001600160a81b03199091161792909217909155610120909201516008909101556000838152600360209081526040808320805460ff191660019081179091553384526002835281842080549182018155845292829020909201849055815180830183529283526618dc99585d195960ca1b838201528151808301909252601c82527f5265636f72642063726561746564206f6e20626c6f636b636861696e00000000908201526112299183916113a7565b336001600160a01b0316817f5e461dcb8f3d253bad3334843865ab04c90a61a5ad6b296741adb4d8e32d47fb89894260405161126793929190611ad1565b60405180910390a39695505050505050565b6002602052816000526040600020818154811061129557600080fd5b90600052602060002001600091509150505481565b6005546001600160a01b031633146112ff5760405162461bcd60e51b81526020600482015260186024820152774f6e6c79206f776e65722063616e2063616c6c207468697360401b60448201526064016102fe565b6001600160a01b0381166113555760405162461bcd60e51b815260206004820181905260248201527f4e6577206f776e65722063616e6e6f74206265207a65726f206164647265737360448201526064016102fe565b600580546001600160a01b038381166001600160a01b0319831681179093556040519116919082907f8be0079c531659141344cd1fd0a4f28419497f9722a3daafe3b4186f6b6457e090600090a35050565b6000838152600160208181526040808420815160a08101835288815280840188815233938201939093524260608201526080810187905281548086018355918652929094208251600590950201938455519092918201906114089082611a11565b5060408201516002820180546001600160a01b0319166001600160a01b03909216919091179055606082015160038201556080820151600482019061144d9082611a11565b505050336001600160a01b0316837fced743c89b031af267210221004eb3be43b58393dab9272b39cb2b54ff1abecc844260405161148c929190611b07565b60405180910390a3505050565b6000602082840312156114ab57600080fd5b5035919050565b60005b838110156114cd5781810151838201526020016114b5565b50506000910152565b600081518084526114ee8160208601602086016114b2565b601f01601f19169290920160200192915050565b60006101408c835280602084015261151c8184018d6114d6565b90508281036040840152611530818c6114d6565b90508281036060840152611544818b6114d6565b6001600160a01b038a8116608086015260a085018a905284820360c086015290915061157082896114d6565b96151560e08501529490941661010083015250610120015250979650505050505050565b60006020808301818452808551808352604092508286019150828160051b87010184880160005b8381101561163657603f19898403018552815160a08151855288820151818a8701526115e9828701826114d6565b838a01516001600160a01b0316878b015260608085015190880152608093840151878203948801949094529150611622905081836114d6565b9689019694505050908601906001016115bb565b509098975050505050505050565b6000806040838503121561165757600080fd5b50508035926020909101359150565b85815260a06020820152600061167f60a08301876114d6565b6001600160a01b03861660408401526060830185905282810360808401526116a781856114d6565b98975050505050505050565b80356001600160a01b03811681146116ca57600080fd5b919050565b6000602082840312156116e157600080fd5b6116ea826116b3565b9392505050565b6020808252825182820181905260009190848201906040850190845b818110156117295783518352928401929184019160010161170d565b50909695505050505050565b634e487b7160e01b600052604160045260246000fd5b600082601f83011261175c57600080fd5b813567ffffffffffffffff8082111561177757611777611735565b604051601f8301601f19908116603f0116810190828211818310171561179f5761179f611735565b816040528381528660208588010111156117b857600080fd5b836020870160208301376000602085830101528094505050505092915050565b6000806000606084860312156117ed57600080fd5b83359250602084013567ffffffffffffffff8082111561180c57600080fd5b6118188783880161174b565b9350604086013591508082111561182e57600080fd5b5061183b8682870161174b565b9150509250925092565b6000806000806080858703121561185b57600080fd5b843567ffffffffffffffff8082111561187357600080fd5b61187f8883890161174b565b9550602087013591508082111561189557600080fd5b6118a18883890161174b565b945060408701359150808211156118b757600080fd5b6118c38883890161174b565b935060608701359150808211156118d957600080fd5b506118e68782880161174b565b91505092959194509250565b6000806040838503121561190557600080fd5b61190e836116b3565b946020939093013593505050565b602080825260159082015274149958dbdc9908191bd95cc81b9bdd08195e1a5cdd605a1b604082015260600190565b600181811c9082168061195f57607f821691505b60208210810361082957634e487b7160e01b600052602260045260246000fd5b600082516119918184602087016114b2565b9190910192915050565b6000600182016119bb57634e487b7160e01b600052601160045260246000fd5b5060010190565b601f821115611a0c57600081815260208120601f850160051c810160208610156119e95750805b601f850160051c820191505b81811015611a08578281556001016119f5565b5050505b505050565b815167ffffffffffffffff811115611a2b57611a2b611735565b611a3f81611a39845461194b565b846119c2565b602080601f831160018114611a745760008415611a5c5750858301515b600019600386901b1c1916600185901b178555611a08565b600085815260208120601f198616915b82811015611aa357888601518255948401946001909101908401611a84565b5085821015611ac15787850151600019600388901b60f8161c191681555b5050505050600190811b01905550565b606081526000611ae460608301866114d6565b8281036020840152611af681866114d6565b915050826040830152949350505050565b604081526000611b1a60408301856114d6565b9050826020830152939250505056fe5265636f726420766572696669656420627920636f6e7472616374206f776e6572a2646970667358221220617c4b086454c7f2856252fef2781dbad9066d5534b4747d84900750a6a5e73b64736f6c63430008140033",
  "linkReferences": {},
  "deployedLinkReferences": {}
}